{
  "_format": "hh-sol-artifact-1",
  "contractName": "Governance",
  "sourceName": "contracts/Governance.sol",
  "abi": [
    {
      "inputs": [
        {
          "internalType": "address",
          "name": "policy",
          "type": "address"
        }
      ],
      "name": "addPolicy",
      "outputs": [],
      "stateMutability": "nonpayable",
      "type": "function"
    },
    {
      "inputs": [],
      "name": "getPolicyCount",
      "outputs": [
        {
          "internalType": "uint256",
          "name": "",
          "type": "uint256"
        }
      ],
      "stateMutability": "view",
      "type": "function"
    },
    {
      "inputs": [
        {
          "internalType": "address",
          "name": "",
          "type": "address"
        }
      ],
      "name": "policies",
      "outputs": [
        {
          "internalType": "bool",
          "name": "",
          "type": "bool"
        }
      ],
      "stateMutability": "view",
      "type": "function"
    },
    {
      "inputs": [
        {
          "internalType": "uint256",
          "name": "",
          "type": "uint256"
        }
      ],
      "name": "policyAddresses",
      "outputs": [
        {
          "internalType": "address",
          "name": "",
          "type": "address"
        }
      ],
      "stateMutability": "view",
      "type": "function"
    }
  ],
  "bytecode": "0x608060405234801561001057600080fd5b506103c7806100206000396000f3fe608060405234801561001057600080fd5b506004361061004c5760003560e01c806320e9869814610051578063b84ef08114610081578063d16907951461009d578063e59771d2146100cd575b600080fd5b61006b60048036038101906100669190610277565b6100eb565b60405161007891906102bf565b60405180910390f35b61009b60048036038101906100969190610277565b61010b565b005b6100b760048036038101906100b29190610310565b6101c8565b6040516100c4919061034c565b60405180910390f35b6100d5610207565b6040516100e29190610376565b60405180910390f35b60006020528060005260406000206000915054906101000a900460ff1681565b60016000808373ffffffffffffffffffffffffffffffffffffffff1673ffffffffffffffffffffffffffffffffffffffff16815260200190815260200160002060006101000a81548160ff0219169083151502179055506001819080600181540180825580915050600190039060005260206000200160009091909190916101000a81548173ffffffffffffffffffffffffffffffffffffffff021916908373ffffffffffffffffffffffffffffffffffffffff16021790555050565b600181815481106101d857600080fd5b906000526020600020016000915054906101000a900473ffffffffffffffffffffffffffffffffffffffff1681565b6000600180549050905090565b600080fd5b600073ffffffffffffffffffffffffffffffffffffffff82169050919050565b600061024482610219565b9050919050565b61025481610239565b811461025f57600080fd5b50565b6000813590506102718161024b565b92915050565b60006020828403121561028d5761028c610214565b5b600061029b84828501610262565b91505092915050565b60008115159050919050565b6102b9816102a4565b82525050565b60006020820190506102d460008301846102b0565b92915050565b6000819050919050565b6102ed816102da565b81146102f857600080fd5b50565b60008135905061030a816102e4565b92915050565b60006020828403121561032657610325610214565b5b6000610334848285016102fb565b91505092915050565b61034681610239565b82525050565b6000602082019050610361600083018461033d565b92915050565b610370816102da565b82525050565b600060208201905061038b6000830184610367565b9291505056fea2646970667358221220d2e9427b05b165c03d83cc89f21d08f69c38f3f64c27d5bd89bfddcda1520ff964736f6c63430008120033",
  "linkReferences": {},
  "deployedLinkReferences": {}
}