{
  "_format": "hh-sol-artifact-1",
  "contractName": "Claims",
  "sourceName": "contracts/Claims.sol",
  "abi": [
    {
      "inputs": [
        {
          "internalType": "uint256",
          "name": "",
          "type": "uint256"
        }
      ],
      "name": "claims",
      "outputs": [
        {
          "internalType": "address",
          "name": "claimant",
          "type": "address"
        },
        {
          "internalType": "string",
          "name": "reason",
          "type": "string"
        },
        {
          "internalType": "uint256",
          "name": "votesFor",
          "type": "uint256"
        },
        {
          "internalType": "uint256",
          "name": "votesAgainst",
          "type": "uint256"
        },
        {
          "internalType": "bool",
          "name": "resolved",
          "type": "bool"
        }
      ],
      "stateMutability": "view",
      "type": "function"
    },
    {
      "inputs": [
        {
          "internalType": "address",
          "name": "claimant",
          "type": "address"
        },
        {
          "internalType": "string",
          "name": "reason",
          "type": "string"
        }
      ],
      "name": "createClaim",
      "outputs": [],
      "stateMutability": "nonpayable",
      "type": "function"
    },
    {
      "inputs": [],
      "name": "getClaimCount",
      "outputs": [
        {
          "internalType": "uint256",
          "name": "",
          "type": "uint256"
        }
      ],
      "stateMutability": "view",
      "type": "function"
    },
    {
      "inputs": [
        {
          "internalType": "address",
          "name": "voter",
          "type": "address"
        },
        {
          "internalType": "uint256",
          "name": "claimId",
          "type": "uint256"
        },
        {
          "internalType": "bool",
          "name": "approved",
          "type": "bool"
        }
      ],
      "name": "vote",
      "outputs": [],
      "stateMutability": "nonpayable",
      "type": "function"
    }
  ],
  "bytecode": "0x608060405234801561001057600080fd5b50610bc7806100206000396000f3fe608060405234801561001057600080fd5b506004361061004c5760003560e01c8063a888c2cd14610051578063ba4611d914610085578063e1a02577146100a3578063e68b96dd146100bf575b600080fd5b61006b60048036038101906100669190610465565b6100db565b60405161007c95949392919061058d565b60405180910390f35b61008d6101d6565b60405161009a91906105e7565b60405180910390f35b6100bd60048036038101906100b8919061065a565b6101e2565b005b6100d960048036038101906100d49190610712565b6102dc565b005b600081815481106100eb57600080fd5b90600052602060002090600502016000915090508060000160009054906101000a900473ffffffffffffffffffffffffffffffffffffffff1690806001018054610134906107a1565b80601f0160208091040260200160405190810160405280929190818152602001828054610160906107a1565b80156101ad5780601f10610182576101008083540402835291602001916101ad565b820191906000526020600020905b81548152906001019060200180831161019057829003601f168201915b5050505050908060020154908060030154908060040160009054906101000a900460ff16905085565b60008080549050905090565b600082815481106101f6576101f56107d2565b5b906000526020600020906005020160040160009054906101000a900460ff1615610255576040517f08c379a000000000000000000000000000000000000000000000000000000000815260040161024c9061084d565b60405180910390fd5b801561029b576000828154811061026f5761026e6107d2565b5b906000526020600020906005020160020160008154809291906102919061089c565b91905055506102d7565b600082815481106102af576102ae6107d2565b5b906000526020600020906005020160030160008154809291906102d19061089c565b91905055505b505050565b60006040518060a001604052808573ffffffffffffffffffffffffffffffffffffffff16815260200184848080601f016020809104026020016040519081016040528093929190818152602001838380828437600081840152601f19601f820116905080830192505050505050508152602001600081526020016000815260200160001515815250908060018154018082558091505060019003906000526020600020906005020160009091909190915060008201518160000160006101000a81548173ffffffffffffffffffffffffffffffffffffffff021916908373ffffffffffffffffffffffffffffffffffffffff16021790555060208201518160010190816103e99190610abf565b50604082015181600201556060820151816003015560808201518160040160006101000a81548160ff0219169083151502179055505050505050565b600080fd5b600080fd5b6000819050919050565b6104428161042f565b811461044d57600080fd5b50565b60008135905061045f81610439565b92915050565b60006020828403121561047b5761047a610425565b5b600061048984828501610450565b91505092915050565b600073ffffffffffffffffffffffffffffffffffffffff82169050919050565b60006104bd82610492565b9050919050565b6104cd816104b2565b82525050565b600081519050919050565b600082825260208201905092915050565b60005b8381101561050d5780820151818401526020810190506104f2565b60008484015250505050565b6000601f19601f8301169050919050565b6000610535826104d3565b61053f81856104de565b935061054f8185602086016104ef565b61055881610519565b840191505092915050565b61056c8161042f565b82525050565b60008115159050919050565b61058781610572565b82525050565b600060a0820190506105a260008301886104c4565b81810360208301526105b4818761052a565b90506105c36040830186610563565b6105d06060830185610563565b6105dd608083018461057e565b9695505050505050565b60006020820190506105fc6000830184610563565b92915050565b61060b816104b2565b811461061657600080fd5b50565b60008135905061062881610602565b92915050565b61063781610572565b811461064257600080fd5b50565b6000813590506106548161062e565b92915050565b60008060006060848603121561067357610672610425565b5b600061068186828701610619565b935050602061069286828701610450565b92505060406106a386828701610645565b9150509250925092565b600080fd5b600080fd5b600080fd5b60008083601f8401126106d2576106d16106ad565b5b8235905067ffffffffffffffff8111156106ef576106ee6106b2565b5b60208301915083600182028301111561070b5761070a6106b7565b5b9250929050565b60008060006040848603121561072b5761072a610425565b5b600061073986828701610619565b935050602084013567ffffffffffffffff81111561075a5761075961042a565b5b610766868287016106bc565b92509250509250925092565b7f4e487b7100000000000000000000000000000000000000000000000000000000600052602260045260246000fd5b600060028204905060018216806107b957607f821691505b6020821081036107cc576107cb610772565b5b50919050565b7f4e487b7100000000000000000000000000000000000000000000000000000000600052603260045260246000fd5b7f436c61696d2068617320616c7265616479206265656e207265736f6c7665642e600082015250565b60006108376020836104de565b915061084282610801565b602082019050919050565b600060208201905081810360008301526108668161082a565b9050919050565b7f4e487b7100000000000000000000000000000000000000000000000000000000600052601160045260246000fd5b60006108a78261042f565b91507fffffffffffffffffffffffffffffffffffffffffffffffffffffffffffffffff82036108d9576108d861086d565b5b600182019050919050565b7f4e487b7100000000000000000000000000000000000000000000000000000000600052604160045260246000fd5b60008190508160005260206000209050919050565b60006020601f8301049050919050565b600082821b905092915050565b6000600883026109757fffffffffffffffffffffffffffffffffffffffffffffffffffffffffffffffff82610938565b61097f8683610938565b95508019841693508086168417925050509392505050565b6000819050919050565b60006109bc6109b76109b28461042f565b610997565b61042f565b9050919050565b6000819050919050565b6109d6836109a1565b6109ea6109e2826109c3565b848454610945565b825550505050565b600090565b6109ff6109f2565b610a0a8184846109cd565b505050565b5b81811015610a2e57610a236000826109f7565b600181019050610a10565b5050565b601f821115610a7357610a4481610913565b610a4d84610928565b81016020851015610a5c578190505b610a70610a6885610928565b830182610a0f565b50505b505050565b600082821c905092915050565b6000610a9660001984600802610a78565b1980831691505092915050565b6000610aaf8383610a85565b9150826002028217905092915050565b610ac8826104d3565b67ffffffffffffffff811115610ae157610ae06108e4565b5b610aeb82546107a1565b610af6828285610a32565b600060209050601f831160018114610b295760008415610b17578287015190505b610b218582610aa3565b865550610b89565b601f198416610b3786610913565b60005b82811015610b5f57848901518255600182019150602085019450602081019050610b3a565b86831015610b7c5784890151610b78601f891682610a85565b8355505b6001600288020188555050505b50505050505056fea2646970667358221220f5fa3ac272a6ec49375430ae2796ab6be00b7f7b0c7bfaa57cc396b14988b4cf64736f6c63430008120033",
  "linkReferences": {},
  "deployedLinkReferences": {}
}